:020000040800F2
:2000000000000824F9650008556500085D650008656500086D650008756500080000000034
:200020000000000000000000000000007D6500088B6500080000000099650008A7650008C4
:200040004966000849660008496600084966000849660008496600084966000849660008E8
:2000600049660008496600084966000849660008B5650008C96500084966000849660008DE
:200080004966000849660008496600084966000849660008496600084966000849660008A8
:2000A000496600084966000849660008496600084966000849660008496600084966000888
:2000C000496600084966000849660008496600084966000849660008496600084966000868
:2000E0004966000849660008000000004966000849660008496600084966000849660008FF
:20010000496600084966000849660008496600084966000849660008496600084966000827
:20012000496600084966000849660008496600084966000849660008496600084966000807
:20014000496600084966000800000000000000004966000849660008496600084966000855
:200160004966000849660008496600084966000849660008496600084966000849660008C7
:2001800049660008496600084966000849660008496600084966000849660008DD65000814
:2001A000496600084966000849660008496600084966000849660008496600084966000887
:2001C000496600084966000849660008496600084966000849660008496600084966000867
:2001E000496600084966000849660008496600084966000849660008496600084966000847
:20020000496600084966000849660008496600084966000849660008496600084966000826
:20022000496600084966000849660008496600084966000849660008496600084966000806
:200240004966000849660008496600084966000849660008496600084966000849660008E6
:200260004966000849660008496600084966000849660008496600084966000849660008C6
:2002800049660008496600084966000800000000496600084966000810B5054C237833B92E
:2002A000044B13B10448AFF300800123237010BD941100240000000050FC000808B5034B11
:2002C0001BB103490348AFF3008008BD000000009811002450FC000881F0004102E000BF60
:2002E00083F0004330B54FEA41044FEA430594EA050F08BF90EA020F1FBF54EA000C55EA19
:20030000020C7FEA645C7FEA655C00F0E2804FEA5454D4EB5555B8BF6D420CDD2C4480EAF7
:20032000020281EA030382EA000083EA010180EA020281EA0303362D88BF30BD11F0004FA7
:200340004FEA01314FF4801C4CEA113102D0404261EB410113F0004F4FEA03334CEA1333BC
:2003600002D0524263EB430394EA050F00F0A780A4F10104D5F1200E0DDB02FA0EFC22FA42
:2003800005F2801841F1000103FA0EF2801843FA05F359410EE0A5F120050EF1200E012A36
:2003A00003FA0EFC28BF4CF0020C43FA05F3C01851EBE37101F0004507D54FF0000EDCF13C
:2003C000000C7EEB00006EEB0101B1F5801F1BD3B1F5001F0CD349085FEA30004FEA3C0C2B
:2003E00004F101044FEA445212F5800F80F09A80BCF1004F08BF5FEA500C50F1000041EB3F
:20040000045141EA050130BD5FEA4C0C404141EB0101013C28BFB1F5801FE9D291F0000F65
:2004200004BF01460020B1FA81F308BF2033A3F10B03B3F120020CDA0C3208DD02F1140CD5
:20044000C2F10C0201FA0CF021FA02F10CE002F11402D8BFC2F1200C01FA02F120FA0CFC5B
:20046000DCBF41EA0C019040E41AA2BF01EB0451294330BD6FEA04041F3C1CDA0C340EDC04
:2004800004F11404C4F1200220FA04F001FA02F340EA030021FA04F345EA030130BDC4F166
:2004A0000C04C4F1200220FA02F001FA04F340EA0300294630BD21FA04F0294630BD94F0DF
:2004C000000F83F4801306BF81F480110134013D4EE77FEA645C18BF7FEA655C29D094EAEF
:2004E000050F08BF90EA020F05D054EA000C04BF1946104630BD91EA030F1EBF0021002067
:2005000030BD5FEA545C05D14000494128BF41F0004130BD14F580043CBF01F5801130BD13
:2005200001F0004545F0FE4141F470014FF0000030BD7FEA645C1ABF194610467FEA655C5E
:200540001CBF0B46024650EA013406BF52EA033591EA030F41F4002130BD00BF90F0000F61
:2005600004BF0021704730B54FF4806404F132044FF000054FF0000150E700BF90F0000FA0
:2005800004BF0021704730B54FF4806404F1320410F0004548BF40424FF000013EE700BF97
:2005A00042004FEAE2014FEA31014FEA02701FBF12F07F4393F07F4F81F06051704732F0D9
:2005C0007F4208BF704793F07F4F04BF41F40021704730B54FF4607401F0004521F0004137
:2005E0001CE700BF50EA010208BF704730B54FF000050AE050EA010208BF704730B511F0CA
:20060000004502D5404261EB41014FF4806404F132045FEA915C3FF4D8AE4FF003025FEAE0
:20062000DC0C18BF03325FEADC0C18BF033202EBDC02C2F1200300FA03FC20FA02F001FAE8
:2006400003FE40EA0E0021FA02F11444BDE600BF80B400AF3D4BD3F888303C4A43F470037B
:20066000C2F88830394B1B69384A43F010031361374B1B6803F00F03062B07D8344B1B68A8
:2006800023F00F03324A43F007031360314B1B68304A43F0010313602E4B00221A612D4B58
:2006A0001A682C492C4B13400B60294B1B6803F00803002B07D0264B1B6823F00F03244A90
:2006C00043F007031360234B00229A61214B0022DA61204B00221A621E4B204A9A621D4BD6
:2006E0001F4ADA621B4B1F4A1A631A4B00225A63184B1C4A9A63174B0022DA63154B194A7B
:200700001A64144B00225A64124B1B68114A23F4802313600F4B00221A66134B5B6A124A39
:2007200043F480435362114B1A68114B1340B3F1005F02D20F4B01221A600F4B43F2D2024C
:200740001A6000BFBD465DF8047B704700ED00E000200052004402587FEDF6EA00020202A3
:200760000000FF0180020101C00000580010005C0000FFFF088100510040005280B584B09E
:2007800000AF786039600023FB603B6801221A603B6810225A603B6801229A603B68002267
:2007A000DA604FF6FF72396878680EF077F8012005F0DEFF3B6802221A603B6810225A6098
:2007C0003B6801229A603B680022DA604FF6FF72396878680EF062F83B6803221A603B68E6
:2007E00010225A603B6808229A603B680022DA604FF6FF72396878680EF050F84FF40C7308
:20080000FB603B6804221A603B6810225A603B6801229A60FA683B68DA604FF6FF72396855
:2008200078680EF03BF84FF4667178680EF06BF800BF1037BD4680BD80B483B000AF0023CD
:200840007B600CE00B4A7B68002142F823100A4A7B68002142F823107B6801337B607B6871
:200860003F2BEFDD00BF00BF0C37BD465DF8047B704700BF000000240001002400000000EB
:20088000D0ED006A90ED016AB7EEE67AB4EEE66AB7EEC60AF1EE10FA9FED076B04D5A0EE8F
:2008A000067BB7EEC70B7047A7EE060BB7EEC00B704700BFAFF300806E3480B74082DA3F27
:2008C00070EE607AE7EE810AB0EE600A704700BFFDEEC07A17EE902AF6EEC07A70EE677AC1
:2008E000531E07EE103AB8EEC77AB5EEC07AF1EE10FA48BF5B189B00034400EB820093ED52
:20090000000A90ED007A37EE407AA7EE270A704760EE006AD0ED014AB0EE005AD0ED037A88
:20092000B0EE083A90ED024A20EE267AD0ED005A74EEE77AF6EE003A37EE076A30EE070AA3
:20094000F7EE002A37EE667AA6EEC50AB0EE465A75EEC45A27EE237AA6EEC35A96EE836A8D
:2009600027EE800A20EE230A75EE227AA7EE840AA5EE870AA6EE240A704700BF816842688C
:200980000368C16080ED000A82604360704700BFF7EE007A002380ED000AC0ED010A87EE33
:2009A000A07AC0ED027A036180ED051AC0ED061A80ED037A704700BFD0ED047A9FED257A71
:2009C000F0EE676A00B5D0EE006A2DED028BB0EE408A83B0E6EE877AF5EEC07AC0ED047A2C
:2009E000F1EE10FA2DDBF1EEE76AD0ED007AF4EEE67AF1EE10FA21D536EEE76AD0ED035AEF
:200A0000E5EE867AB0EE677AC7EE267A90ED020AB4EEE70A77EEC07AF1EE10FACCBF90ED83
:200A2000057A90ED067AA7EE870A80ED020A20EE080A03B0BDEC028B5DF804FBF7EE007ADF
:200A4000E4E7B0EE670A01900EF02AF90198F0EE406ACAE76F12833AB7EE007AF6EE006A8D
:200A600077EE417A67EEA67AF4EEC07AF1EE10FA18DC31EE071A21EE261AB4EEC01AF1EEFE
:200A800010FA02DBB0EE600A704777EE607A30EE410A37EE417A67EE807AC7EE876A36EE0F
:200AA000A00A704780EEA77A27EE000A704700BF00291ADD70B5051F002605EB8101AE46BC
:200AC00030465EF8044F2B464FF0000C53F8042F944208BF0CF1010C8B42F7D1664501DAFB
:200AE000664620468E45ECD170BD0020704700BF80B588B000AF78600B46FB704FF07A53D5
:200B0000FB614FF07E53BB61FB7883F00103DBB2002B05D04FF07653FB614FF07E53BB6146
:200B20004FF480533B6100237B612DE07B6907EE903AF8EEE76A3B69013B07EE903AB8EED8
:200B4000E77AC6EE877AB7EE007A77EE677AC7ED037A97ED067AD7ED077AC7EE276AD7ED96
:200B6000030AB0EE660A0EF0B7F9B0EE407A7B699B007A681344D7ED077A67EE277AC3EDB1
:200B8000007A7B6901337B617A693B699A42CDDB3B69013B18462037BD4680BDB0B495B05E
:200BA00000AF78600B46FB70244B07F108041D460FCD0FC40FCD0FC40FCD0FC42B682360F9
:200BC0004FF07A537B644FF07E53FB64FB7883F00103DBB2002B05D04FF076537B644FF01E
:200BE0007E53FB6428233B640023BB6418E0BB6C0C2B1ADCBB6C9B0050333B44483BD3ED46
:200C0000007A97ED137A67EE277AC7ED0F7ABB6C9B007A681344FA6B1A60BB6C0133BB64C2
:200C2000BA6C3B6C9A42E2DB00E000BFBB6C013B18465437BD46B0BC704700BF74FC000806
:200C400080B588B000AF78600B46FB704FF07A53FB614FF07E53BB61FB7883F00103DBB2D9
:200C6000002B05D04FF07653FB614FF07E53BB616423FB6000237B6129E07B695B4207EE84
:200C8000903AF8EEE77AF2EE086A87EEA67AF0EE470AB0EE000A0EF01FF9B0EE407AD7ED53
:200CA000067A67EE877AC7ED027A97ED027AD7ED077AB4EEE77AF1EE10FA0DD47B699B009D
:200CC0007A681344BA681A607B6901337B617A69FB689A42D1DB00E000BF00233B611AE025
:200CE0003B697F3B07EE903AF8EEE77AF2EE086A87EEA67AF0EE470AB0EE000A0EF0ECF8F0
:200D0000F0EE407A084A3B699B001344C3ED007A3B6901333B613B697F2BE1DD7B69013B89
:200D200018462037BD4680BDD099012480B58AB000AF78600B46FB704FF078537B624FF058
:200D40007E533B62FB7883F00103DBB2002B05D04FF076537B624FF07E533B6214237B6109
:200D60000C233B610023FB610023BB612DE0BB695B4207EE903AF8EEE77AF2EE086A87EE4F
:200D8000A67AF0EE470AB0EE000A0EF0A5F8B0EE407AD7ED087A67EE877AC7ED037A97ED18
:200DA000037AD7ED097AB4EEE77AF1EE10FA11D4FB699B007A681344FA681A60FB690133F2
:200DC000FB61BA693B691344BB61FA697B699A42CDDB00E000BFFB69013B18462837BD46B3
:200DE00080BD00BF80B500AF00210E48FFF780FE03460D4A136000210C48FFF721FF034641
:200E0000094A536000210A48FFF7C8FE0346064A936000210748FFF789FF0346024AD3605B
:200E200000BF80BDCC5901243C5701243C5801249C5701244C570124DFED0D7A20EE270A89
:200E4000FDEEC07A17EE903AF6EEC07A70EE677A5A1C00EB8303C2F3090293ED000A00EB25
:200E6000820090ED007A37EE407AA7EE270A70470000804410B52DED028B96B00446542267
:200E8000124901A8B0EE408AF0EE608A0DF098FEB0EE007AC4EBC404F1EE0C7A87EE280AF0
:200EA00028EE278ABDEEC88A18EE103A062BD4BFE418063416AB03EB840454ED157A20EE0F
:200EC000270A16B0BDEC028B10BD00BFA8FC000880B400AF00BFBD465DF8047B704700BFBE
:200EE000294AD2ED007AF4EE607AF1EE10FA36D1264BF7EE006A264A93ED007AD2ED007A37
:200F00009FED246A70EEE70A37EE067A87FE667AE0EE877A83ED007A88B3F7EE006AB0EE7D
:200F2000677A77EEE65AF0EE667AF7EE006A1A4B21EE001AB0EE005AB0EE086A81FE661A89
:200F400061EE016AA1EE456A66EE866AE6EEA57AA6EEE57AC3ED007A83ED017A7047C2EDF4
:200F6000000A70EEE70A9FED0B7A0949074BC1ED007AE0EE877A83ED007A0028CDD1B7EE17
:200F8000007A77EE675AD0E734110024E4DB01243811002452499D39D8DB012438B5194AA7
:200FA0000146194BD2ED007AD3ED006A174DE7EE806A174C2846F6EEE67A76EEE76AB0EE98
:200FC000660AC3ED006AFFF737FFF0EE407A05F58050B0EE660A60EEA77AFDEEE77A17EE2B
:200FE000903A01EB83031B682360FFF725FF60EE800AFDEEE00A10EE903A01EB83010B683D
:20100000636038BDC8550124E0DB0124D0BB0124D8DB0124114AB7EE007A114B00EB81002C
:20102000D2ED006AB0EE601AD3ED007A0D4AE6EE807AD0ED000A1078F4EEC77AF1EE10FAB5
:2010400004DD77EEC77A80F001001070B6EEE77A37EEC70A83ED000AFFF742BFCC55012466
:20106000E0DB0124E8DB0124B0EEC00A90ED037AD0ED017A9FED2F6AB4EEC07A9FED2E4A09
:20108000DFED2E6A30EE475ADFED2D4A70EE675AF1EE10FA0368F4EEC07A58BFB0EE446AF8
:2010A000F1EE10FAA5EE067A58BFF0EE646AE5EEA67A80ED037AC0ED017ACBB1B0EE026AE6
:2010C000DFED206A67EE867AC7FEA67AB4EEE77AF1EE10FA23DB037DF7EE007A002283F022
:2010E000010380FEE70A0260037580ED020A7047DFED156A90ED026A67EEA67AB4EEE77AC7
:20110000F1EE10FA08D970EE860AF7EE007A80FEE70A80ED020A704701230360F3E7D0EDFB
:20112000027A70EEA70AF7EE007A80FEE70A80ED020A7047F028273D008088390068DA39EE
:2011400000C02E386F12833A6666663F08B5034601EB8201B6EE000A0C4AD3ED007AB7EE62
:20116000001A93ED017A0A4877EE877AD1ED003AD2ED000A27EE800AFFF776FFF0EE630A8C
:20118000007DBDE80840FFF7ABBE00BFF4560124F4DB0124284AF6EEE00A284BD2ED006A88
:2011A00092ED017AB0EE664AD3ED005AF0EE474A93ED016A224B234893ED005AD0ED003ACA
:2011C000214810B4214CD4ED007A97EEA54AD6EE274AF7EE005AB2EE046AF0EE657AE5EEB4
:2011E000046AA4EE857AE3EE867AB0EE666AF0EE476A27EE867A82ED006A66EEA77A87FE3A
:20120000657A27EE207AC7FEE57A67EEA07ABDEEC77AFDEEE77A17EE103A17EE904A01EB5B
:20122000830301EB84015DF8044B1B68C2ED016A03600B6843607047ECDB012430560124AF
:20124000F8560124E0560124D8DB01241C100024124B00EB8100124A93ED000AD2ED007AB0
:20126000104A30EE270AD0ED000A107810B40E4C83ED000A217851B1DFED0C7A002180F060
:201280000100B0EE670A21701070C3ED007AB7EE001A5DF8044BFFF723BE00BF7C2A04243C
:2012A000F456012424DC01241E5701240000000080B582B000AF00237B6055E07B6807EEDF
:2012C000903AB8EEE77B9FED306B27EE066B9FED305B86EE057BF7EEC77BC7ED007A97EDAB
:2012E000000A0DF085FFF0EE407A2B4A7B689B001344C3ED007A97ED000A0EF03DF8F0EEB8
:20130000407A264A7B689B001344C3ED007A97ED000A0DF06DFFF0EE407AB6EE007A67EEA2
:20132000877AB6EE007A77EE877A1D4A7B689B001344C3ED007A97ED000A0EF01DF8F0EE43
:20134000407AB6EE007A67EE877AB6EE007A77EE877A134A7B6803F580639B001344C3ED1E
:20136000007A7B6801337B607B68B3F5806FA5DBFFF738FDFFF7ACFD0A4B4FF07A521A6063
:2013800000BF0837BD4680BD182D4454FB2119400000000000009040D09B0124D0AB0124BD
:2013A000D0BB01245C560124C94BF7EE005AC9491A68C94B2DE97043C84C054601EB820015
:2013C00084B02478D0ED007A04A802FB04F4DFF87483F8EEE77A00EB820C01EB8402D8EDA0
:2013E000006A0DF1100E67EE807A92ED007ABC4AF4EEE56AB8EEC77A92ED006AFDEEE77ACC
:20140000B84AF1EE10FA27EE066A16680FCB0EE90F0017EE902A5CF8103C03EB820393EDAC
:20142000000AB14B35DB83ED000AF0EE400AAF4B1B68012B33D0B0EE661AFFF741FAAC4B02
:20144000B6EE004AF7EE007ADFF8FC9293ED007AD9ED005AB8EEC77ADFEDA64A9FEDA65A91
:20146000A64BE7EE447AB0EE657A97EE807A87FE247A87FE457A37EE257A89ED007A83ED61
:20148000007A042E00F22181DFE806F0B0B6C5DA1D00D3ED000A954B1B68012BCBD1984957
:2014A000984B0968984A03EB810392ED000AD3ED007A964B77EEC07A93ED007AA7EE870A21
:2014C00082ED000ABBE704ABFDEEC67A904D03EB840417EE901A54F8100CFFF7B9FED8ED3B
:2014E000006A99ED007A8B4BB7EE006A95ED000AD3ED007AF4EEC66ADFED874A30EE670A99
:201500009FED865A864AF1EE10FA864880FE240A80FE450A30EE270AD2ED005A83ED000A7D
:20152000C0F2A380F0EE400A80ED000AB0EE661A7D49FFF7C5F9F7EE007AF4EEE75AF1EE3E
:2015400010FAC0F28F80F0EE400A81ED000AB0EE651A9FED713AF7EE004AFFF7B1F993ED7D
:20156000015A20EE076AD5ED017AF4EEE46ADFED6B3A77EEC57A6D4A9FED6D4AF1EE10FA2C
:20158000C7FE837AC7FEE37A37EE850A86FE046A82ED006A83ED010A6ADBF0EE400A80ED93
:2015A000010AB0EE661AFFF78BF9F7EE007AF4EEE75AF1EE10FA52DBF0EE400A81ED010A4F
:2015C000B0EE651A5B4BFFF77BF920EE070ADFED587AF0EE460A93ED001A80FE270AFFF7B4
:2015E0006FF982ED010A04B0BDE870834FF07E53474D2B606B6076E7002C50D1B0EE470A2A
:201600004D48F0EE460A424DFFF7C8FCD8ED006A99ED007A67E704ABFDEEC67AB0EE470A78
:20162000DFED460A03EB8404394D17EE901A54F8100CFFF7EFFCD8ED006A99ED007A52E732
:20164000CCB9B0EE470A2846F0EE460A3A49FFF7A1FD2F4DD8ED006A99ED007A43E7D1EDD0
:20166000010AADE7D1ED000A71E7D0ED000A5DE7D0ED010A95E704ABFDEEC67AB0EE470A93
:20168000284603EB8404224D17EE902A54F8101CFFF75CFDD8ED006A99ED007A23E704AA8A
:2016A000FDEEC67A264BB0EE470A02EB8404184D17EE901AD3ED000A54F8100CFFF7AAFC48
:2016C000D8ED006A99ED007A0DE7114D0BE700BFA45601243C570124FCFC0008385501244F
:2016E000E0560124885601241C11002428570124905601246F1283BA6F12833A4C10002410
:20170000245701243C580124601000242C570124D8DB0124D0DB01240AD723BC0AD7233C8C
:201720008C560124241100242C1100243457012404DC2A3AC4560124CC590124000000006B
:2017400044100024C856012420110024B7EE007AC7EE007A08B9F1EE677AB0EE670A7047E4
:20176000F7EE007A9FED047A30EE200A80FE070A80FE670A704700BF00000000224A234BEA
:2017800011681A78032930B421D02149F7EE006A204C91ED007ADFED207A37EE266A84ED94
:2017A000007A67EE277A1D491D4D86EE867A1D481D4CC5ED007A046081ED007A1AB11B4AFF
:2017C0000021C2E9001100221A7030BC7047002AFBD10F4AF7EE006ADFED0F7A92ED007AF1
:2017E0000C4D37EE266A0D4A67EE277A85ED007A0B4C86EE867A0B490B48C4ED007A08609D
:2018000082ED007ADFE700BFB4560124084D012410100024F44C0124E17A5440144D012493
:20182000FC4C012408100024FFFF1F00DC550124564B574A10B51B781268012B00F08A8052
:20184000032A68D0534A9FED540A1078FFF77EFFDFED527A20EE270A51485249D0ED007A5F
:20186000D1ED006A9FED507A77EEE67A4F4A82ED000AF0EEE77AF4EEC77AF1EE10FA52D5A1
:201880004B4A107880F001004A499FED430AFFF75DFFD1ED007A484AF5EE407A82ED000A1C
:2018A000F1EE10FA04D04549097809B944491160032B36D0434B1B789BBB434B187880F063
:2018C0000100424A9FED340AFFF740FF1068F0EE407A3F4B01283F4A9FED2F0ACCBF0020C0
:2018E0000120C3ED007AFFF731FFD2ED007A3A4BF5EEC07A83ED000AF1EE10FA34D9374BAA
:20190000D3ED007A364BF5EEC07AF1EE10FA0CD901221A7010BD01209FED1F0AFFF716FFC6
:201920009AE70020CDE70020AEE71A78002AF1D02C4A11680029EDD12B490978042919D03F
:20194000032914D01F490978B9B10521116000221A7010BD0F499FED100A0878FFF7F6FEAC
:20196000032A7FF475AF77E7FFF708FFC7E702211160ECE701211160E9E713480478002CCD
:20198000E5D0062401701460E1E700BF58560124B45601241C5701240000FA438FC2F53CA3
:2019A00010100024F44C01240000C8422CDC01245A560124F84C01247010002438DC01242C
:2019C0006F12033B094D012439DC012464560124681000246C100024781000246410002434
:2019E000004D0124044D0124595601247049714B91ED000AD3ED000A6F4A704BDFED703A7A
:201A00009FED705A9FED703ADFED702A9FED702A70B5FFF7A5FE6F4CF0EE407A92ED000A14
:201A2000D4ED000A6C4DC1ED007AFFF799FEF0EE407A6A4993ED000AD1ED000AC2ED007AA7
:201A4000FFF78EFE664AF0EE407A95ED000AD2ED000A644AC3ED007AFFF782FE624BB7EEC7
:201A6000007A12681968614C012A614B85ED000A43FE855AD4ED007A01295E4D5E4903FE19
:201A8000856AD3ED006A77EE867A91ED004AD5ED004A76EEA56A594E34EE234ADFED585ACD
:201AA00074EEA34A366887FEA56A86FE476A84ED006A012E534C84FEC76A84FE474A85ED8F
:201AC000006A81ED004A03FE855A4F49C6FEA56AC6FEC76AC3ED006A91ED006A4B4B36EEE8
:201AE000056AD3ED006AD3ED017A86FE256A86FE476AD4E9005481ED006A002D444D454995
:201B000002FE835A002C76EE856A434C02FE833A77EE837AC6FEA56AC6FEC76AC7FEA57A0F
:201B2000C3ED006AC7FEC77AC3ED017AD5ED000AD4ED007A394BF4EEC27A93ED000AF1EE48
:201B400010FAC8BFF1EE600AFFF70AFE83ED000A0B78012B13D0012A1BD09FED1A7A304BF0
:201B6000F7EE006A9FED266AD3ED007A77EE877AC7FE867AC7FEE67AC3ED007A70BD294BA5
:201B80001B78002BE7D0284B012A1B6803604360E3D1264B9FED0B7AD3ED006ADFED087AFB
:201BA000F5EE406AF1EE10FA07FE877AD7E700BF6C1000247010002430DC012428DC01248E
:201BC00017B7D13817B7D1B86F1283BA6F12833A3333733F78100024641000242CDC012452
:201BE000681000244C5601245056012474100024C45601248C560124C8560124D455012438
:201C00000000000008560124D85501247C100024401000245856012400560124BC56012446
:201C200034DC01245A56012450100024F84C0124B7EE007AA0EE007AB7EEC00AB7EEC77A31
:201C4000B1EEC76B30EE060BB7EEC00B0DF0C6B860EE006A9FED047AF7EE007AE6EE877AA3
:201C600027EE800A704700BF9FAAAA3E000000000029B5EE400A07EE901AF0EE400A80F8C9
:201C80000428F8EEE77A70B5B4BF4E1C0E46F1EE10FA0D464FEA660604462DED068BB7EE00
:201CA000008A066088EE279A2ED1012929DD00F204540025B7EEC99AF6EE008A9FED3C7BA6
:201CC00029EE079B07EE905A0135B8EEE70A30EE280AB7EEC00A20EE090BB7EEC08BB0EE30
:201CE000480A0DF049FBF0EE407AB0EE480AF1EE677AE4EC017A0DF07BFAAE4284ED3F0AA2
:201D0000E0DCBDEC068B70BDDFED2B7AB2EE040A60EEA70A0DF0E0F830EE480A88EE000ABD
:201D2000FFF786FF20EE098AB7EEC88AB0EE480B0CF082FFB0EE40ABB0EE480B0CF050FF5D
:201D4000012DB7EECAABF7EEC08BDADDB7EEC99A04F20454F6EE00AA00259FED157B29EE18
:201D6000079B07EE905A0135B8EEE70A30EE2A0AB7EEC00A20EE090BB7EEC08BB0EE480A52
:201D80000DF036FAF0EE407AB0EE480A6AEE677AE4EC017A0DF0F0FA20EE280AAE4284ED82
:201DA0003F0ADEDCBDEC068B70BD00BFAFF30080182D4454FB210940CDCC4C3D0000000074
:201DC0009FED615BB7EEC06ADFED617AF0EE402AFFEE001A26EE056B70B5B7EEC66B2DED5D
:201DE000028B26EE270AFFF733FF90F80438F7EE007A20EE005A012B036836EE066A41FEF4
:201E0000A71A47FE850A002B40F3988035EE671A021D00F2044630EE002AF0EE674A9D0044
:201E200035EE275A02EB830C31EE011A044631EEA10A3146B1EE008ADFED468AB0EE674AA9
:201E40001346D1ED407A91ED807A66EE277A26EE077AF0EEE77A27EE077AC7FEA87AA7EE5E
:201E6000A77AF1EEC75AB0EE457AC2EE256AF0EE455AE6EEA75AA6EEE77AC4EE257A27EEF8
:201E8000277A67EE815A60EEA77A77EE046AE3EC017A67EE883A20EE273AC3ED7F7AF0EED8
:201EA000667AC3EDBF5A9C4583ED3F3AE1EEA57AA1EC017A83EEA77A64EE874AC1D1C4EEC0
:201EC000246A1346D3ED007A67EEA67AE3EC017A9C4593ED3F7AD3ED7F7A27EE267A67EE45
:201EE000A67A83ED3F7AC3ED7F7AEBD1DFED1A7AF4EE672AF1EE10FA20D14FF07E5342F83D
:201F0000043B6245FBD12A46002104F582700CF025FE2A46002104F501700CF01FFE2A46F0
:201F2000002104F541700CF019FE2A4630460021BDEC028BBDE870400CF010BEBDEC028B31
:201F400070BD00BFAFF30080182D4454FB2109403EC3AE37CCBC8C2B0080BB46000000008B
:201F60000029B5EE400AF0EE400A70B5B4BF4E1C0E46F1EE10FA0D4626F0010304464FEAF4
:201F8000660603602DED068B30D101292BDD07EE901AF6EE008A00F204540025B8EEE77B10
:201FA0009FED3F6B86EE079B07EE905A0135B8EEE70A30EE280AB7EEC00A20EE090BB7EEA3
:201FC000C08BB0EE480A0DF0D7F9F0EE407AB0EE480AF1EE677AE4EC017A0DF009F9AE4277
:201FE00084ED3F0AE0DCBDEC068B70BDDFED2E7AB2EE040A60EEA70A0CF06EFFF7EE007A1B
:2020000030EE670A87EE800AFFF712FE07EE905AF8EEE77A80EE278AB7EEC88AB0EE480BFF
:202020000CF00AFEB0EE40ABB0EE480B0CF0D8FD012DB7EECAABF7EEC08BD4DD07EE905A49
:20204000F6EE00AA04F204540025B8EEE77B9FED146B86EE079B07EE905A0135B8EEE70AAA
:2020600030EE2A0AB7EEC00A20EE090BB7EEC08BB0EE480A0DF0BCF8F0EE407AB0EE480A64
:202080006AEE677AE4EC017A0DF076F920EE280AAE4284ED3F0ADEDCBDEC068B70BD00BF86
:2020A000182D4454FB210940CDCC4C3D000000002DE97047C0FE807AC0FEC00A0468F7EE5E
:2020C000004A031DF1EE002A002C9FED714AF0EE643A9FED703AB8BF0134002564102DED09
:2020E000048B03EB840883B04FEA84096E4641460DF1080ACDED007ACDED010A9FED625B51
:20210000B6EC016A2A462544B7EEC66A26EE056BB7EEC66B26EE040AFFF79AFD954236EE00
:20212000066A60EE008A5EDD38EEE31A944270EE001A38EEA32A31EE011A5FD003F5806C6B
:202140001A46DCED407AF0EE420A9CED807A66EE277A26EE077AF0EEE77A27EE077AC7FECB
:20216000837AA7EEA77AF1EEC76A81EEA67AF0EE426AE7EE270AE7EE676AC3EEA07A66EEB8
:20218000A76A28EEA77A61EE277A76EEA30AA2EC017A27EE220AC2EDBF7A37EE078A70EEB0
:2021A000A77A82ED7F7A914282ED3F8A80EE277AECEC016A64EE874AC3D1C3EEA46AD3ED03
:2021C000007A67EEA67AE3EC017A994293ED3F7AD3ED7F7A27EE267A67EEA67A83ED3F7AA6
:2021E000C3ED7F7AEBD156454346494401D0C84486E703B0BDEC048BBDE87087B7EE000A49
:202200009FED249AF1EE008A00F2045C1A46FCEC017A9CED3F7A67EE867A26EE077AF0EEEC
:20222000E77A27EE077AC7FE897AA7EEA77AF1EEC70AB0EE427AC1EEA06AF0EE420AE6EE68
:20224000A70AA6EEE77AC0EE207A27EE277AE2EC017A67EE810AC2ED7F7A27EEA88A9142EF
:2022600077EEA76A82EDFF7A77EE007AC2EDBF0AF1EE666A77EEE07AC2ED3F6A88EE277ACC
:2022800064EE874AC3D198E7182D4454FB2109403EC3AE37CCBC8C2B80B485B000AF7860B1
:2022A0000023FB6011E07A68FB689B0013444FF000021A607A68FB6840339B0013444FF0D4
:2022C00000021A60FB680133FB60FB683F2BEADD00BF00BF1437BD465DF8047B704700BFE6
:2022E0000368002B24DD043000EB8303F0EC015AB0EE407AF1EC016A90ED3F6A8342E5EE0D
:20230000806AD1ED3F7AE6EE077AB0EE660AD0EDBF6AE6EEC07A41ED017AD0EDFF7AD0ED69
:202320007F6A67EEC07AE6EE877AC1ED3F7ADDD1704700BF002901601BDD031D00EB8100B7
:20234000D2F800C019461832043343F804CC814252F814CCC3F8FCC052F810CCC3F8FCC106
:2023600052F808CCC3F8FCC252F804CCC3F8FCC3E6D17047C64A9FEDC76A92ED007AC64BED
:2023800070EE477AD3ED006AF0EEE77A2DE97047F4EEC67A89B0F1EE10FA00F32B82DFED38
:2023A000BF7AB7EE006ADFEDBE5A76EEA76AC6FEC66A76EEC67A86FEC67A87FE257A36EED8
:2023C000474AC7FEC67AC7FEA57A37EE677AB54A0029C3ED006A1368B34D03F10103DFEDFC
:2023E000B37A85ED004AC3F30D0360EE277A85ED017A136040F3C781DFF8BCE2F0EE005AB7
:20240000AB4E03F58048DEED006A0129D6ED013AB1EE675AFDEEE66A96ED003AA54CD0EDA0
:20242000004A16EE90CAF0EE656A04EB8309ACF10202A3EB0C0C04EB880806EE102ACCF319
:202440000D0CB8EEC66AE3EE866AF0EE653AE3EE063AFDEEE66A16EE90AAFDEEE33AA3EB2F
:202460000A0A13EE902ACAF30D0AA3EB020204EB8A030AF5804AC2F30D02D3ED006A04EB05
:202480008A0A04EB820367EE266A9AED006A02F5804227EE067A93ED006A04EB8202E4EEE1
:2024A000066A92ED006AA4EE067AE7EEE64AC9ED004AE7EEA46A90ED016AA7EEC76AC0ED6E
:2024C000006ACDED006AA7EE867A88ED006A8DED047A80ED017A00F056819EED017A04EB5E
:2024E0008C0996ED034A0CF58048BDEEC77A96ED023AD5ED016A04EB8808D5ED003A022930
:2025000017EE103AB0EE657AD0ED004AA3F10202ACEB030306EE102AC3F30D03B8EEC66AE9
:20252000A4EE067AB0EE654AA3EE064ABDEEC77A17EE10AABDEEC44AACEB0A0A14EE102A10
:20254000CAF30D0AACEB020204EB8A0C0AF5804AC2F30D029CED006A04EB8A0A04EB820C07
:2025600026EE866A9AED007A02F5804266EE876A9CED007A04EB8202A7EE236A92ED007AC7
:20258000E7EE236AE6EE054AC9ED004AA7EEA46A90ED017AA5EE267A80ED006A8DED016A2C
:2025A000E7EE876A88ED007ACDED056AC0ED016A00F0E9809EED027A04EB830996ED054A78
:2025C00003F58048BDEEC77A96ED043AD5ED016A04EB8808D5ED003A032917EE10CAB0EE3D
:2025E000657AD0ED004AACF10202A3EB0C0C06EE102ACCF30D0CB8EEC66AA4EE067AB0EE22
:20260000654AA3EE064ABDEEC77A17EE10AABDEEC44AA3EB0A0A14EE102ACAF30D0AA3EB86
:20262000020204EB8A030AF5804AC2F30D0293ED007A04EB8A0A04EB820326EE877A9AED00
:20264000006A02F5804266EE866A93ED006A04EB8202A6EE237A92ED006AE6EE236AE7EE66
:20266000674AC9ED004AA4EEA77A90ED016AA6EEE76A80ED007A8DED027AE6EE276A88ED72
:20268000006ACDED066AC0ED016A7CD016E000BFDC1000240AD7233C3CDC032417B7D13827
:2026A0000000000068DC032440DC0324FA7E2A3F48DC03243CDC0124CC1000249EED037AFB
:2026C000F0EE656A96ED063AFDEEC74AD6ED072AB0EE657A95ED016AD5ED003A04EB8C05B4
:2026E00014EE903A90ED004A023B04EE903AF8EEE44AA4EE837AE4EEA26ABDEEC77A17EEDC
:20270000102ABDEEE67AACEB020217EE103AC2F30D02ACEB03030CF5804C04EB820602F5EE
:202720008042C3F30D0304EB8C0C04EB8202D6ED004AD2ED005A04EB830203F58043D2ED03
:20274000006A04EB830366EE266A93ED007AE4EEA36A26EE077AA5EEA37AF0EE445AE5EE49
:20276000265AC5ED005AE7EEA56A90ED016AA5EE076AC0ED006ACDED036AA7EE867A8CEDB1
:20278000006A8DED077A08AA3A4C3B4BB7EE005A02EB8102246893ED007ADDED006A012CC0
:2027A00052ED095A08AA9FED356ADFED357A75EEE65ADFED344A02EB810146FE277A77EE79
:2027C000877A11ED056A9DED047AC7FEA47AC7FEC57AE7EEA56AC3ED007A36EE476AC0ED0C
:2027E000006AD3ED007AA6EE277A80ED017A09B0BDE87087F7EE007AF4EEE76AF1EE10FA48
:2028000021DB002916DD204C012984ED007A84ED010A0FD0022984ED027A84ED030A09D055
:20282000032984ED047A84ED050A03D084ED067A84ED070A9FED117A9FED144AF0EE476A27
:2028400082ED000AC3E59FED0D7ADFED0E5A76EE876AC6FEE76A36EEE76A86FEE77A87FEC7
:20286000257A37EEC74A86FE676A86FE256A37EE467AACE5945601246CDC032417B7D13850
:2028800017B7D1B80000000048DC032472F97F3F08B52DED0A8BF0EE628A32EEA2CAB0EE0D
:2028A000409AB0EE620AF0EE60AAF0EE619AF0EE42BAB0EE418A0CF05FFDB0EE40BAB0EEA2
:2028C000680A0CF095FCB0EE40AAB0EE4C0A0CF053FDF0EE408AB0EE4C0A0CF089FC20EE06
:2028E0002B2A28EE887A68EEAB8A20EE088AABEE2A7AEBEE298AAAEE2A8AAAEE292AF7EE5B
:20290000006A39EE070A78EEA68A28EE088A22EE022AA0EE008AA8EEA82A88EE020ABDECF0
:202920000A8BB1EEC00A08BD08B52DED068BD0ED008A90ED019AD0ED029AB0EE680A90ED27
:2029400003AAF0EE490AD0ED04AAB0EE691AF0EE4A1ADFED452AB0EE6A2AFFF799FFB0EE32
:20296000408AB0EE6A2ADFED412AF0EE4A1AB0EE691AF0EE490AB0EE680AFFF789FF38EEDC
:20298000008AB0EE6A2ADFED3A2AF0EE4A1AB0EE691AF0EE490AB0EE680AFFF779FF38EE13
:2029A000008AB0EE6A2ADFED332AF0EE4A1AB0EE691AF0EE490AB0EE680AFFF769FF38EE0A
:2029C000008AB0EE6A2ADFED2C2AF0EE4A1AB0EE691AF0EE490AB0EE680AFFF759FF38EE01
:2029E000008AB0EE6A2ADFED252AF0EE4A1AB0EE691AF0EE490AB0EE680AFFF749FF38EEF8
:202A0000008AB0EE6A2ADFED1E2AF0EE4A1AB0EE691AF0EE490AB0EE680AFFF739FF38EEEE
:202A2000008AB0EE6A2ADFED172AF0EE4A1AB0EE691AF0EE490AB0EE680AFFF729FF30EEED
:202A4000080ADFED117AB4EEE70AF1EE10FA06D4F4EE007ABDEC068B20EE270A08BDBDEC74
:202A6000068B9FED0A0A08BD20C9A93E20C9293FB0AD7E3F20C9A93F683BD43FB0ADFE3F04
:202A8000FC8F144020C9294017B7513A17B7D138DFED537A534A60EEA77A53499FED537A3B
:202AA000FDEEE77A10B52DED048BB0EE409A17EE903AB2EE040A044602EB8302F0EEC90AFA
:202AC00001EB830192ED008AD1ED008A60EE870A0CF002FAB1EEC06ADFED457AB7EE005A0B
:202AE000B5EEC09A68EE276AF1EE10FAF1EEC65A76EE057A36EE457A28EEA74A68EE878AD6
:202B000066EEA56A30DD77EEE85A77EEA87A77EE044A75EEA63A37EE447A75EEE65A37EE76
:202B2000A64A77EEE67AC5EE236AB8EE003A37EE077A64EE834ABDEC048B26EE266A27EE0A
:202B4000267A65EEA65A24EE065A64EE866A84ED037A67EE867AC4ED045A84ED005AC4ED00
:202B6000016AC4ED027A10BD09D4002384ED005ABDEC048BA36063602361E36010BD77EE2E
:202B8000A84A77EEE87A77EE445A74EEA63A37EE047A74EEE64A37EEA64A77EEE67AC5EE75
:202BA000236AB8EE003A75EEA55A27EE037ABDEC048B26EE266A27EE267A64EEA64A65EE8E
:202BC000865A64EE066A84ED037A67EE867AC4ED044AC4ED015AC4ED006AC4ED027A10BDF0
:202BE0003EC3AE3CD09B0124D0AB0124CDCCCCBCF30BB53FD0ED007AF0EE406A91ED006A00
:202C0000D0ED015AA7EE806A91ED017AD0ED047AA5EE807A90ED035AD0ED025A67EEC67AD4
:202C2000B0EE460AA5EE467AE5EEA67A81ED007AC1ED017A704700BF80B582B000AF0022A1
:202C40009FED2A0A04212A48FFF712F8DFED297AB0EE670A2648FFF7B3F89FED270A0221B0
:202C60002648FFF77DF9DFED260A9FED260A2348FFF71EFA244A03212448FFF75BFB0022DD
:202C80009FED1D0A04212248FEF7F2FF9FED210A1F48FFF795F800237B601FE000233B60B0
:202CA00016E03B685A007B6813445B021A4A13441846FFF7F1FA3B685A007B6813445B02FC
:202CC000164A13441846FFF7E7FA3B6801333B603B68032BE5DD7B6801337B607B68012B02
:202CE000DCDD00BF00BF0837BD4680BD0000000094EC03240080BB46CDCC4C3E9CF403241C
:202D000000002A430000FA4584100024A4FC0324AC0404240000164594DC0324B40C0424D6
:202D20002E4BB7EE007AD0ED007A93ED006A0023D0ED036A77EE867AD0ED025AC360F4EE0A
:202D4000C77AC0ED007AF1EE10FA22DB244B77EEC77A90ED046AB6EE005A93ED004AC0EDB0
:202D6000007A70EE464A67EE847A37EE677A67EEA77AA4EE876A27EE477A76EE655A80ED33
:202D8000026A25EE855AA5EE076AE7EE856AF0EE465A144AF6EE004AB7EE005A124BD2EDE8
:202DA000007ABFEE007A93ED006A76EE856A0F4B67EEA47A80ED040A36EE066A93ED005A7F
:202DC00037EE407AC0ED035A67EEA67AF8FE677AA7EE867AA7EE050A704700BF0056012494
:202DE00004560124F8550124FC550124BC560124774A0321774B92ED000AD3ED007A9FED3F
:202E0000766A30EE270ADFED756A9FED757A9FED751A90ED002AD0ED011ADFED730A2DE964
:202E2000704F2DED028BB7EE008A704D0446F0EE008AD5ED007A80FE480AB4EEC60ADFF839
:202E4000DC8104F1080A6A4EF1EE10FADFF8D0B158BFB0EE667A77EE877AC7FE817AC7FE95
:202E6000C87AC5ED007AFFF785FAD0ED007AFFEE003AD5ED006AB6EE005A77EEC27A5D4B9E
:202E800090ED017ABAEE083ADFED5B5AB2EE080AA7EEA62A594937EE617A594ADFED592A24
:202EA0009FED474B9FED486B80ED002AD3ED007A554862EE277A95ED002AE7EE021AC7FEF4
:202EC000A37AB0EE487AC7FEC87A27EEE72AA2EE257A67EE877AC4ED007A91ED007AD3EDE0
:202EE000007AB4EEC57AB0EE485A61EEA77AF1EE10FAA7EE685A92ED007AC7FEA37AC7FEE7
:202F0000C87AE7EE220A67EEE73AB0EE487A58BFB0EE430AB0EEC55AA3EEA57AB7EEC55A65
:202F2000A5EE046B67EE277AC4ED017AB7EEC66B86FE016A26EE000AFFF7AAFD334A344BF1
:202F400015681B6805EB0522D8ED007A03EB03299FED307AED1A06EBC90977EE877A06EBAA
:202F6000C2062D4AAD0202EB8322C7FEC87AC8ED007A594694ED000A23480BF1080BFFF701
:202F800039FE1146F0EE404A4846FFF7A9F9B0EE405AA9183046B0EE640A02F50072FFF73B
:202FA0009FF930EE450AD8ED007AA0EE275AA4EC015AA245DDD1BDEC028BBDE8708F00BFA5
:202FC000000000403333F33F000000A09999C9BF1057012420570124CDCC4C3D6F12833A37
:202FE0006F1283BA0000000000007042BC28042494EC0324341000244CA6AA3E08570124E8
:20300000F05601240000FA4570DC0324785601247456012417B7D13894DC0324C056012408
:2030200084DC0324002305480549064A036043600B6013604B605360704700BF3056012498
:2030400038560124405601245F4AF7EE003AD0ED006AD2ED007A5D4AF0EEE66AF8EEE77ABE
:203060005B4B9FED5C6A93ED003AF4EE637AD2ED007AB7EEC35A5849584BF1EE10FA91ED39
:20308000007AF4EEE76A93ED001A9FED4D4B46FE233AF1EE10FA10B5514C25EE045BD4EDA6
:2030A000002A03DDF0EE667AC2ED006ADFED4D6AF4EEE67AF1EE10FA03DB4FF07E544A4BFD
:2030C0001C604A4B67EE277A9FED494AF7EE000AD3ED006A90ED012AF4EEE76AD2ED011AFC
:2030E00077EEE67A434CB0EEC22A9FED3A0AF1EE10FAF4EEC21A54BFB0EE626AB0EE416AB5
:20310000F1EE10FAE6EE276A36EE844AC3ED006AB7EEC44A85EE046BB7EEC66B86FE006AFC
:2031200086FE606A84ED006A03D5F0EE421A82ED012ADFED2C7AF4EEE71AF1EE10FA03DB9E
:203140004FF07E50284A506067EE217A93ED017A9FED274AF7EE004A9FED1E2AB4EE677AD2
:20316000224877EEC77AF1EE10FA48BFF0EE412AA7EEA27A37EE046A83ED017A1E4BB7EEC9
:20318000C66A85EE067BB7EEC77B87FE027A87FE647A84ED017AFDF773FB30EE044A83ED96
:2031A000000AF0EE647A83EE047A37EE647AE7EE237AC7FE827AC7FEE47AC1ED007A10BD0C
:2031C0001B0DE02D90A0E63F645601243056012420100024000000001C10002414100024EF
:2031E000181000246666663F385601243C55012417B7D138485501244455012480B588B0E5
:2032000000AF0023FB6112E02F4AFB699B0013444FF000021A602C4AFB6903F500139B0084
:2032200013444FF000021A60FB690133FB61FB69B3F5001FE8DB01229FED240A022124482E
:20324000FEF716FD0023BB6130E04FF07A533B614FF08043FB601F4BBB601F4B7B60BA6925
:203260001346DB009B1A9B001C4A1344D7ED011A97ED021AD7ED030A97ED040A1846FDF7D9
:2032800087FBBA691346DB009B1A9B00144A1344D7ED011A97ED021AD7ED030A97ED040A6E
:2032A0001846FDF775FBBB690133BB61BB69012BCBDD0C4B7B6197ED050A0548FEF780FD5B
:2032C00000BF2037BD4680BD000000C100000000B42004240AD7233C6F12833A3C290424D0
:2032E000742904240000F0423A4AF0EE006A9FED3A6ABFEE007AD2ED007AB0EE085A374BF9
:20330000F6EE085A77EE867A04EE101A93ED006AF6EEE74A77EEE47A2DE9704FA7EEA67A9A
:2033200080462DED0C8BF7EE00CA88B0B0EEC77AB4EEEC6A3CEEC77AF1EE10FA67EE074A5E
:20334000A7EE665A64EEA54A40F3A082B1EE089A9FED237AF0EE6C5A2248B5EE006A224992
:20336000D0ED006A91ED002AA4EE856A1F4BC2EE263A9FED1F3AD3ED002ADFED1E4A9FEDF4
:203380001E5A1E4837EE227A1D49C2ED007A87FE037A87FE647A83ED007AA6EE257A80ED10
:2033A000007AF4EEC53AC1ED003AF1EE10FA2FDC9FED147AF4EEC73AF1EE10FA40F34482F7
:2033C00037EE637A9FED106AB6EE083AA7EE063A20E000BFAC290424CDAFE635005701245B
:2033E00017B7D1384C100024FC4C0124802A042400000000295C8F3D0080F847205701248B
:20340000B429042400C293463560AA36CDCC4C3E1FED023AB2EE006AE049F7EE005A9FED2E
:20342000E07AF0EE003ADF4827EE866AD1ED067A66EE878A91ED017AF8EEC46ABFEE005A37
:20344000B6EEC64A77EEE57A36EE446A37EE657A67EEA67AA6EE235A27EE267AFDEEE77A97
:20346000F0EE084ABDEEC77A17EE903A68EE838AF0EEC57A17EE102A8DED017AB0EE647A31
:20348000059375EEE77AFF2AA7EEE37A68EEA78A68EEA78A68EE878AC0ED008A02DC02F534
:2034A00080720192FF2B02DC03F580730593B7EE006A91ED027AD1ED077ADFEDC95A37EEA0
:2034C000467A77EEC67A79EE46AA27EE267A67EEA67ACAFEA5AACAFEC6AABDEEC77AFDEEE0
:2034E000E77A6AEEAAAA17EE102A8DED027A17EE903ACDED067AFF2A2AEEAA0A02DC02F5B7
:2035000080720292FF2B02DC03F580730693B7EE006A91ED037AF0EE009ADFEDB15AD1ED82
:20352000087A37EE467A79EE699A77EEC67A27EE267AC9FEA59AC9FEC69A69EEA99ABDEEEE
:20354000C77A67EEA67AA9EEA90A17EE102A3AEEA9AAFDEEE77A8DED037AFF2A3AEE06AA6D
:2035600017EE903ACDED077A30EE060A02DC02F580720392FF2B02DC03F580730793B0EE8C
:20358000086A9FED977AF7EE007A874BF6EE006A39EE469A93ED008A28EE268A89FE079A9E
:2035A00089FE679A29EE099AA9EE090A3AEE09AAB4EEC70AF1EE10FAC0F29C81F1EEC07A00
:2035C0007A4B0024DFF810A21E68DFF810B2F7EE00DA06EE906A88EE0ADA8DEEA77ADDEDED
:2035E000017AB8EEE7BADDED027A3DEEC88AF8EEE7BADDED037A3BEE68BAB8EEE7CADFED0A
:20360000787A7BEEE8BAB8EEE6AA8BFE27BA3CEE68CACBFEA7BA8CFE27CAA8EE07DABAECEF
:20362000012AA500F8EC017AB8EEC22A604B3DEEE70A03EB04105F4B32EE672AFDF768F950
:20364000B0EE405A03EB840332EE4B0AD3ED007A25EE275AB4EECA0AF1EE10FA80F2EC803D
:20366000B5EEC00AF1EE10FA01D530EE0A0A524B314603EBC4594846FDF72AF9F0EE406AA0
:20368000002C40F0E48032EE6B0AAAEEA65AB4EECA0AF1EE10FA80F2A580B5EEC00AF1EEFB
:2036A00010FA01D530EE0A0A31464846FDF710F9F0EE406A002C40F0A08032EE4C0AA6EEE8
:2036C000A95AB4EECA0AF1EE10FA3DDAB5EEC00AF1EE10FA01D530EE0A0A48463146FDF71A
:2036E000F7F8F0EE406A002C38D1A6EE895A334BC4EBC40003EB80002DEE058AB0EE480AAE
:20370000FDF75AF930EE480ADBED007A2C4BA0EE278A2C4803EB4421B0EE480AFEF7E0FD71
:2037200030EE480A284B2819A0EE2C8A03EB8000B0EE480AFFF7F4FA244B1D4485ED000A93
:20374000002C7CD101246AE730EE4A0A48463146FDF7BEF8F0EE406A002CC6D0DDED077AC4
:203760009FED1F7AF8EEE77A77EEE87AC7FE877A32EE670AB4EECA0AF1EE10FAC0F2B1807D
:2037800030EE4A0A31461248FDF7A2F8114B30EE660AD3ED007AE0EE276AA6E7E81000242C
:2037A00000008043B0290424985501240C100024F42804247C100024000000C13C290424B1
:2037C000B41C0424B4200424C0280424EC550124000080C174100024E455012430DC012407
:2037E0000000000030EE4A0A31464846FDF770F8F0EE406A002C3FF460AF9DED067A5FEDAA
:20380000087AB8EEC70A30EE680A80FE270A32EE400AB4EECA0AF1EE10FA5ADB30EE4A0A00
:2038200031463748FDF754F8364B30EE660AD3ED007AE0EE276A40E730EE4A0A17E708B05B
:20384000BDEC0C8BBDE8708FB6EE083AE2E59DED057ADFED2D7AB8EEC70A30EE680A80FED6
:20386000270A32EE400AB4EECA0AF1EE10FA28DB30EE4A0A31462248FDF72AF8214B30EE58
:20388000660AD3ED007AE0EE276AFCE6B1EE043ADFED1D3AF1EE005A9FED1C7ADFED1C6A90
:2038A00026EE036A76EE655A36EE2C9AC6FE6CCAC5FEA35AF4EEE35AF1EE10FA37FE267AE3
:2038C0004AE5B5EEC00AF1EE10FAD3D530EE0A0AD0E7B5EEC00AF1EE10FAA1D530EE0A0AD4
:2038E0009EE7B5EEC00AF1EE10FA7FF54BAF30EE0A0A47E70BF0D4F9F0EE407A60E600BFBA
:20390000000080C1741000240000000017B7D13817B7D1B880B483B000AF0E4B00221A6085
:203920000D4B00221A6000237B6009E00B4A7B689B0013444FF000021A607B6801337B60D5
:203940007B68012BF2DD00BF00BF0C37BD465DF8047B7047CC290424C8290424C0290424F3
:20396000524BD3ED0D7AF5EE407A2DE9704FF1EE10FA4F4DDFF85C914E4E14BF01230023F2
:203980002B7002F0E9FED9F80030044695F80080C51A3378434564D0DFF83CA1DFF83CB19D
:2039A000DAED007A9BED007AF8EEE77A77EE677AFDEEE77A17EE903A002BB8BF5B42B3F535
:2039C0007A7F3FDC3C4B0021DFF814E1DFF814C11960DEF80030DCF80010581C2029D8BFFC
:2039E000013100F01F00BDEEC77ACEF800003348CCF8001017EE102A40F823200023CBF8E5
:203A00000030FDF755F82E4B07EE100A2D4A0121D3ED007A0223B8EEC77AC9F80040F8EEE7
:203A2000E77A1360284B197040F69801C7FEC77AFDEEE77A8D42CAED007A29D886F8008096
:203A4000BDE8708F1C490B680133022B0B6017DD0023DFF88CE0DFF88CC00B6001210846C6
:203A6000C1E740F698039D42E8D9164A1368022B0BD0154B012286F800801A70BDE8708F9B
:203A8000DFF85CE0DFF85CC0A3E7DFF84CA00E4B00214FF07E50C9F8004011600B4C0C4A2D
:203AA000CAF8001021701060E4E700BFB01100245410002455100024682A0424E0290424C8
:203AC000E828042430570124702A042439DC0124141100246C2A0424C4550124BC290424B4
:203AE000642A0424602A042430B5784C8FB00FCC0DF1040CACE80F000FCCACE80F000FCC91
:203B00002468ACE80F00CCF8004002F025FE704B0446704AD3ED007A92ED007AF4EEC77A48
:203B2000F1EE10FA44DB77EEC77A6B4A0121C3ED007A117069496A4B6A4A08691B691178BC
:203B400003F48063002943D000211170664A002111603BB3654A664866490368B3F57A7F65
:203B600003D80D685D1B2B190360634D0C6063482C78017824B9624C24680CB1032C36D1E8
:203B80000023137061B1002313705E4901235E4A0C685E4D5E49146000222B600B70027080
:203BA0000FB030BD5B4B01221A70FFF7B3FED1E7594BDFED5A6A93ED007A27EE267AF4EEE2
:203BC000C77AF1EE10FAB5DD434B00221A70B1E74205BBD5444B1A68012ABBD050480268B7
:203BE000A21A642A5ED80121404A1960B3E74D4C2478002CC4D1B3F57A7FC1D31378002BA5
:203C0000C0D014700029C0D1474B484CD3ED007A94ED007AF8EEE77AF4EEC77AF1EE10FA28
:203C200033DD434A43491368434801EB8305013303F0010385ED007A13600368012B27DDBC
:203C4000D1ED006AD1ED017A76EEA76A07EE903A3A4B0EAD0122F8EEE77A1B682B48C3F17B
:203C60000C03294986EEA77A026005EB8303284853ED0D7A027067EE277AFDEEE77AC1EDBD
:203C8000007A002323600FB030BDFFF743FEF8E70133002B0360F4DD012BD1ED006AD5D0B6
:203CA0000223CFE71B4D2A782AB1104A29700121046019604FE7224901250C4A096815703F
:203CC000B1FA81F11F4D49092970F0E70CFD0008D4290424F44C0124D1290424000402587E
:203CE00000080258BD55012418110024D029042410110024DC290424A8560124AA56012403
:203D0000B4560124AC560124C055012430570124A9560124D82904244C10002400007F43D8
:203D2000782A04245C100024E8280424B8290424C8290424C0290424CC2904245810002415
:203D40008C5501241E5701244FF48072002101480AF004BF00010024891A0131194470B5EB
:203D60001446054691FBF3F203FB12115E1A00EB8100B44207DC002C17DDA2000021BDE8C7
:203D800070400AF0EBBE002E03DDB20000210AF0E5FEA31B002128468B424FEA8302BDE895
:203DA0007040D8BF04220AF0D9BE70BD2DE97043FFF7CAFF104BDFF854800024D3F80090CB
:203DC0004FF400130D4ED8F800104A4630460C4DFFF7C2FF4FF400134A46D8F8041006F577
:203DE00000002C60FFF7B8FF064A074B6C6014701C60BDE8708300BF08100024000000C0C9
:203E0000EC4C0124094D0124044D0124DC55012480B586B000AFF860B9607A603B607A681C
:203E2000BB689A4201DB00237B607B68002B03DA7A68BB6813447B60BA687B68D31A7B61B9
:203E40003A6A7B699A420ADC7B689B00FA68D0183B6A9B001A4639680AF0B2FE15E07B688D
:203E60009B00FA68D0187B699B001A4639680AF0A7FE7B699B003A68D1183A6A7B69D31ABF
:203E80009B001A46F8680AF09BFE00BF1837BD4680BD00BF2DE9704F1A4B82B01A4C0D4602
:203EA000D3F800B006462268DFF874A05946174B0092D3F8009002685046154BFFF7A8FFDB
:203EC000DFF860802368494640460093114B2A68FFF79EFF72686368002659460AF500000E
:203EE00000930D4B2660FFF793FF63686A684946009308F50000094BFFF78AFF666002B0C2
:203F0000BDE8708F08100024EC4C01240C1000246C140024ACB000248C620024CCFE002400
:203F2000000000C0000000C12DE9704FFFF70CFF334EDFF804C14FF0000BDFF80081DFF894
:203F40000091DFF800A1DFF800E12E4C2E4DDFED2F7A2A46204671460023B3F5001F0EDAD7
:203F6000342BC2ED007A03F1010343DDB3F5001F00F1040002F10402E1EC017AF0DB0133A5
:203F8000043104300432B3F5800FE6D1204B04F59C444CF804BB0EF5000E9C4504F1200442
:203FA00005F5000546F804BB48F804BBE9EC017AEAEC017ACDD117490123174AC1ED007ABA
:203FC0001649174881F800B01168164C99420370154908BFC2F800B0144A1548127823607A
:203FE0000023042A80F800B00B7001D0114A1360BDE8708FE0EC017A0432E1EC017AACE732
:20400000E45501246C140024000000C000000000E4550124F84C012430570124A956012447
:204020005A560124E4100024084D01245856012439DC0124044D0124DC550124EC4C0124E3
:20404000B455012434290424000000C180B483B000AF274BD3ED007AF5EE407AF1EE10FAA4
:204060003FD0244B1B68002B3BD100237B6035E0214A7B68002142F82310204A7B689B0031
:2040800013444FF081421A6000233B6016E01C497B689A003B6813449B000B444FF0000292
:2040A0001A6018497B689A003B6813449B000B444FF000021A603B6801333B603B68032BC6
:2040C000E5DD114A7B68DB0513441A680F497B689B000B441A607B6801337B607B68012B87
:2040E000C6DD00BF0C37BD465DF8047B704700BFF84C0124D4550124DC550124B455012493
:2041000014290424F4280424000000C03429042408B5FFF719FEFFF799FF044B1B78022B4A
:2041200000D008BD024B00221A6008BD58560124044D012408B5FFF707FEFFF787FF024B72
:2041400000221A6008BD00BF044D01249C4B2DE970432DED028B1B78B0EE408A994D042B62
:204160002B7000F0B980062B40F0DC80964B0122DFF8BC921A70DFF8BC82944CD8F8003016
:204180002168934E994232782ED0924900200860002A47D14BBBFFF7BDFB00228E48D8F811
:2041A00000300270DFED8D7A032B8D49DFF888C28C4823600A7089F800203270CCF800206D
:2041C000C0ED007A00F0B180874A884902EB83031B680B60F5EE407AF1EE10FA40F08880D6
:2041E000BDEC028BBDE87083E2B9DFF84CC2032B7C48DCF80010D0ED007A236024D00022CB
:2042000089F800200029DFD0012900F0BA800229E0D1774A754B92ED007AB8EEC77A83ED24
:20422000007AD7E7032BB6D19FED6C7ADFF808C2F0EE477A6B486A4A23600023DCF80010EE
:20424000337080ED007A137099F8002000296CD0012900F0A280022900F0A880002AB9D009
:204260002B780024634A012B146064D0022BB7D15F4B0024604901221B6889F800400A70E9
:20428000002BA7D007EE103AB7EE006AB8EEC77AC7EE876AF8FE667AF4EEC67AF1EE10FAC0
:2042A00005D4FDEEE76A27EE277A16EE902ADFED536A534BB4EEE67A1A60F1EE10FA13DAFC
:2042C000DFED506AB4EEE67AF1EE10FA0CD4F0EE477A80ED007A7DE70322DFF8549101239E
:2042E0002A7089F8003046E7F0EE667AC0ED006ADFED456A454827EEA67A3C49C0ED007A88
:20430000C1ED007AFDEEC77AB6EEC77A37EE667A3F4A404BC2ED007A83ED007ABDEC028B02
:20432000BDE87083DFF8089125E72F492F4BC9681960002192E7F5EE407A00230129264AD9
:2043400008BFCCF80030F1EE10FA137005D1324B0022DFED327AC3E9002238EE270ADFED58
:20436000277A2F4A2F4BB4EEE70A12681A60F1EE10FA5A600EDB2C4B0122C0ED007A1A704B
:204380002EE72A4A194B92ED007AB8EEC77A83ED007A1FE780ED000A22E7244B93ED007A77
:2043A000124BB8EEC77A83ED007A57E7104B93ED007A0E4BB8EEC77A83ED007A4EE700BF1E
:2043C000595601245856012439DC0124B0560124BC550124044D0124A95601240000000001
:2043E000004D0124F84C0124184D012410100024C4550124D4290424084D012470371A492D
:20440000E410002400007A44E17A5440F44C012408100024FC4C0124DC55012400008043B0
:20442000501000243457012460560124C05501245A560124B45601243057012480B483B01C
:2044400000AF304B304A1A602E4B93ED007AF7EE006AC6EE877A2D4BC3ED007A01237B6026
:2044600023E07B68013B274A9B00134493ED007ADFED276AC7EE267A224A7B689B001344CA
:20448000C3ED007A1F4A7B689B00134493ED007AF7EE006AC6EE877A1C4A7B689B0013447B
:2044A000C3ED007A7B6801337B607B68032BD8DD144B9B68134AD360124B93ED037AF7EEE9
:2044C000006AC6EE877A114BC3ED037A0D4BD3ED037A9FED107A67EE877AFDEEE77A17EEE2
:2044E000902A0D4B1A60074BD3ED037AFDEEE77A17EE902A094B1A6000BF0C37BD465DF86E
:20450000047B7047184D0124E4B21543284D01240000803DE17A5440E0100024E82804245B
:2045200080B582B000AF00237B6012E00E4A7B689B0013444FF000021A600B4A7B6803F55D
:2045400000139B0013444FF000021A607B6801337B607B68B3F5001FE8DBFFF76FFF00BF19
:204560000837BD4680BD00BF000000C0C44BD3ED007AF5EE407A2DE9704FF1EE10FA04464F
:204580002DED0A8B9AB0179100F01B82BD4B08461B7807EE903AF8EEE71ABB4AB7EE008A2A
:2045A000DFEDBABA4FF000091370FDF71FFAB84BDFEDB87A93ED007AB74B77EE677AB74A9F
:2045C000D3ED008A67EE216AB54B67EEA17AD2ED000A93ED007AFDEEE66AB24B20EE879A17
:2045E0009FEDB1CA1B6860EEA80AFDEEE77A1194169378EE688AAD4BCDED0C6A0F93AC4B7E
:20460000CDED157A0E93AB4B0D93AB4B1093AB4B1493AB4B0493119B4FEA091293ED000ACD
:2046200020EE070AA3EC010A1193994B93ED00BA0E9B7BEE4C7AF3EC011A0E93F4EEC81AC8
:204640000F9BFDEEE77AB3EC011AF1EE10FACDED067A0F93179B03EB8903D3ED00AA994B6B
:204660006AEEABAA03EB890393ED00AA4FEA8903CAFEEBAAC8EE2A9A1293934B53F8294016
:20468000924B53F82980924B53F829A00D9B53F8041B0D938F4B019103EB0913059340F167
:2046A0009581049B41F288308B4D93ED002A00FB0910531989F00102884D07935305884A43
:2046C0000B932B68874D0893D5ED00CA864DD2F800B005EB8003854D854E039305EB800340
:2046E00002934FEA092309934FEA49530A9317EE903A323B13932DE0069BA5EB0B05E01A88
:20470000584572DBA0EB0B000A9B184406EB800090ED000A58190B9B06EB800090ED002AF1
:20472000581906EB8000D0ED007AB9F1000F67D177EEC27A049B71EEA91A0798A7EEAC2A03
:2047400083ED002AFCF71AF9F4EEC81AF1EE10FA40F1D480019BB0EE610A059808F1010843
:2047600001330AF10105634A01340193FCF7D0F8089B20EE827A29EE022A5C45A8BF0024B7
:204780009845A8BF4FF00008029BA3EC012A0293099B03EB0A005FFA85FA02EB800080ED54
:2047A000000A03EB0A00039B02EB8000D0ED007A6AEE277AA8EEA77AF0EEE77A81FE271A06
:2047C000A3EC017A03930C9BE51A5D4594DA07EE905A069BF8EEE77AE01AF5EEC07AF1EEC6
:2047E00010FA48BF5D4458458CDA07EE900AF8EEE77AF5EEC07AF1EE10FA48BF584483E71B
:20480000159BE01A584520DB139BA0EB0B00A4EB030CDC4528DBACEB0B0C0CF5001C00F590
:204820000010354B06EB8C0C06EB800093ED006ADCED006A90ED007A76EEC06A37EE427A6B
:20484000A6EE860AA6EE072A72E707EE100A139BB8EEC77AA4EB030CB5EEC07AF1EE10FA0E
:2048600048BF5844DC45D6DA07EE10CAB8EEC77AB5EEC07AF1EE10FA48BFDC44CDE700BFAE
:20488000F84C01245A56012438DC0124E17A5440FC4C01240000484228DC01246C100024F2
:2048A000641000240C4D01240000804340560124B4550124EC4C01240856012410560124CB
:2048C0003429042448550124DC550124E4550124EC28042414290424F42804240C100024B8
:2048E00008100024D85501246C140024ACB00024000000C0384D012434DC0124119B13EDBB
:20490000010A129B71EEC81A059860336AEEA1AA0DEB0302C2ED00AAFCF730F8109B1A682D
:20492000521B052A01D800221A600D9B019A43F8042C129B264A42F803A00E9A42ED011ACC
:20494000244AD450244A42F803800F9B03ED011A169B002B0ADD109A14605A1E149B169235
:20496000C3E90088C3E902881C4B1A60B9F1000F0ED1109B4FF0010904331093149B103394
:204980001493049B04330493154B93ED007A42E6FDEECB7A18A817EE901AFEF7A5FC114BF0
:2049A00093ED007AD3ED017A27EE097A67EE897A83ED007AC3ED017A1AB0BDEC0A8BBDE810
:2049C000708FF7EE001A01230846E6E5012598E7EC280424DC550124E45501240C4D012489
:2049E00064100024EC55012480B500AF40220A490A4809F06FF9402209490A4809F020FA54
:204A0000FBF71AFFFCF754FCFEF7F8FBFEF714F9FFF786FD00BF80BD00010024001200248E
:204A2000000000249812002480B483B000AF7860074B01221A70074B00221A80064B002216
:204A40001A8000BF0C37BD465DF8047B704700BF64140024104D0124124D012480B483B064
:204A600000AF7860074B02221A70074B10221A80064B20221A8000BF0C37BD465DF8047B8B
:204A8000704700BF64140024104D0124124D0124254A264B1178D3ED006AA9B9DFED247A9F
:204AA000F4EEE76AF1EE10FA31DBF5EE006A0121BDEE007A1170F0EE667AC3ED006A80ED74
:204AC000007AC0ED017A7047DFED1A7AF4EEE76AF1EE10FA0CD99FED187A76EEC77A37EE34
:204AE000667AC3ED007A80ED007AC0ED017A7047FDEE006A0021B5EE007A1170F0EE667A14
:204B0000C3ED006A80ED007AC0ED017A7047DFED0A7A76EEA77AB1EE677AC3ED007AC0ED89
:204B2000017A80ED007A7047842A0424882A0424DBF97E3EDBF97EBE6F12833A2DE9704FF9
:204B4000D24D0646B3EE007A2DED048B96B00FCD09AC0FC40FCD0FC40FCD0FC42B68236008
:204B6000FEF760FACA49CB4BD1ED007ACA4A1B7827EE870AC2ED007A002B40F05B81C74BC6
:204B8000C749D3ED006AD1ED007AE6EE877AC54AC548C1ED007AD2ED007A016877EE807A89
:204BA000C24B022993ED007AC2ED007A00F04881BA4AF3EE006AF0EE477A92ED006AE6EE36
:204BC000267AC3ED007AFFF7C1FAFCF731FEB84CFEF78AFF9FEDB79AFEF7C2FE701CB64B97
:204BE000B64E04EB800403EB8005DFEDB58A05F18003A846019387E006EE902A9FEDB17AF9
:204C0000B8EEE68A06EE903A25EE075AF8EEE69A65EE875A28EE458A69EEA59ADFF8B4921A
:204C200003A8A94AD9ED006A99ED017A92ED006A77EE665AA54BDFF8E0B2D3ED004AE5EE61
:204C4000866A93ED015AA5EEC67AA7EEA68AE7EE879AB0EE486A8DED038AF0EE697ACDED29
:204C6000049AA6EEE46AE5EE477A8DED056ACDED067AFEF7E9F9F7EE006A95ED007A9BF848
:204C80000030C6EE877A27EE888A67EEA97A8DED038ACDED047A1BB1CDED048ACDED038AF6
:204CA0009AED000A05A8FCF77FFB894B07A903A81A685B6807920893FFF758FC8548FEF795
:204CC00097F89BF80030002B40F0AB80824B08F108089FED826A0834D3ED007A99ED007A38
:204CE00067EE867AD9ED016A019B27EE877A984567EEA67ABDEEC77AFDEEE77A08ED027A81
:204D000048ED037A00F091803368002B40F08D80734A7449D2ED007A734ADFF800E2D1EDF6
:204D2000004AD2ED005A7149714ADEED000A714BDFF8EC9174EEE04ADFF8E8A1DFF8E8C14A
:204D40006D48C4FE894A6D4D91ED005A92ED006A6B496C4A93ED001AD9ED001A9AED002AF9
:204D600077EEC17ADCED002A35EE615A90ED003A75EEC25AD5ED003A36EE626AD1ED006A78
:204D8000C7FE897A92ED007A85FE095A9FED5E4A76EEC36A37EE637A5C4AC4FEC44A74EECD
:204DA000A04AC7FEC47A85FE445A77EE817AC5FE895A35EE215AC5FEC45A86FE096A75EE06
:204DC000825A86FE446AC6FE896A36EE226AC6FEC46A87FE097A76EE836A87FE447A37EEAB
:204DE000237ACEED004A1178DFF840E1C3ED007A89ED005ACAED005A226854F8043C9EEDE4
:204E0000005ADEED015A8CED006AC0ED006A85ED007A00293FF4F0AEF0EE689AB0EE688AC2
:204E2000FCE62C48FFF734FE50E716B0BDEC048BBDE8708F1A49D1ED007A70EE277AA6E6F5
:204E4000334A1268012A3FF7B3AE274AF7EE007AF2EE096A9FED1A6AD2ED005A16A92D4819
:204E600077EEE57AC7FE867A67EEA67AFDEEE77A17EE902AC0ED007AF0EE477A01EB8201F4
:204E800051ED0D6AE6EE807A9BE600BF40FD00084C1000241D570124501000245C56012496
:204EA000B8290424D429042430570124BC2904240000002417B7D1B800010024044D0124F5
:204EC0000000000000000030D85501241457012434570124EC550124641000240000004FC3
:204EE000D4560124D0560124CC560124E4560124E8560124045701240C570124341000249F
:204F0000EC5601243010002417B7D1385D10002498560124742A0424B856012400570124D6
:204F200008570124FC5601241057012438100024C24BF7EE004AC24A93ED025AC149D3ED90
:204F40000C7AD3ED035AF4EEE47A93ED0B7A93ED056ABDEEC77ABC48F1EE10FAD3ED0A6A6D
:204F60002DE9704F2DED0A8B82ED005AD3ED04BAB64A1C68C2ED00BA93ED068AB44A0C60FF
:204F800082ED008AB349B44A93ED089AC1ED005A82ED009AB149B24A93ED09BA81ED006ADA
:204FA00082ED00BA93ED01AAD3ED078AAD49DFF874E3AD4A80ED00AAC1ED008ACEED006ABD
:204FC00082ED007A40F2A482A84A0120FDEEE77A1070A74AC2ED007AD3ED137AF7EE009ACB
:204FE000D3ED104AFDEEE77A93ED127AA14CF5EE404AA14E17EE903A2070A04C03F00F03A6
:20500000D6F800809E4A23609E4B7468C3F800809D4BB5681C6051689C4B0029DFF808C3EB
:205020001D60D4BF00200120F1EE10FADFF8FCA2B5EE407ADFF8F892D6E9033614BF4FF0F9
:20504000010B4FF0000BCCF80030F1EE10FADFF8E4C2C9F80000CCF80060D2F808C0CAF867
:2050600000C0DFF8D4A28AF800B018BF4FF0010BDFF8C8A208BF4FF0000B8AF800B0002E1D
:2050800040F03F8239EEE67A9FED814AFFEE007ADFED80AAE6EEC49A67EE076AF3EE064ABB
:2050A000E7EE267AE7EEA4AABCF1000F03D0F5EE007A69EEA79AD2F80CE0DFF884C2764A41
:2050C000CCF800E0D2F800C063450BD01360734AC2F800C0724A13600022724B1A600022CB
:2050E000714B1A70714A13689E42714B18BF16600129D4BF002201221A60002D40F0EC8105
:205100001D60002E00F0FA8100229FED94CA1A60684B694A1B681060002B00F0DA81B4EE82
:20512000001AF6EE000AB0EE4A0AFBF795FC634B29EE099A624883ED000A624B83ED005AEF
:20514000614BC3ED005A614B83ED006AFDF7ECFBCBEE807ADFED816AB7EE007A67EE8C7A54
:20516000C7FEA67AC7FEC77A0EB1F2EE08AA584BB0EE000A574EF0EE6A0AC3ED007A564BE6
:20518000DFF8C09183ED009A544B86ED008A83ED00BA534BC9ED008AC3ED00AA09F09CFE4C
:2051A000F7EE007A4F4B50484FF0010C4F4A30EE670AC0ED009A87EEA97A4D48116883ED8D
:2051C000000A4C4BC7EE806A80ED007A4A4880F800C04A48C3ED006AB1FA81F35B0903703C
:2051E000002D00F01D81032D00F01A815368002B434B14BF624600221A7002D00424224B37
:205200001C60404A1368A34207D014603E4A136000223E4B1C603E4B1A603E4A13689845D8
:2052200000F0A880C2F800803B4A136000223B4BC3F800803A4B1A609CE000BFB011002422
:2052400028100024201000242410002498550124A455012494550124AC5501249C550124CC
:20526000B0550124A8550124D0550124AA560124AC560124A85601245055012458100024D3
:20528000645501249C56012480560124B4560124FA7E2A3F000000427056012474560124F2
:2052A00078560124C05601244856012464560124D45501243057012450560124CC56012412
:2052C00070DC0324D0560124E4560124D8560124D4560124DC560124EC560124E8560124EE
:2052E000F4550124F8550124005601247855012404560124FC55012448100024385501243E
:205300005C1000247C56012484560124885601248C56012498560124A0560124A4560124B0
:20532000C8560124A05501246C560124905601244C560124685601241C5701241D57012443
:2053400094560124E0560124B81EC53E9A99193EA4707D3F0AD7233C8988083E0000000019
:205360006666863FCDCC4C3D00002043CDCCCC3D3EC3AE37B8F1000F00D001B3F7EE007AF4
:20538000032C5FED0F6A5FED0F5A77EEE87A1FED106A46FEA56A68EEA68A1FED127A012D78
:2053A00077EEA67AC8EEA76AA6EE867A00F09F80C4BF5FED177A27EE277A89ED007AF7EE13
:2053C000007A5FED1A6A1FED1A9A1FED1A7A88FE268A88FE678A39EE489A28EE077A1FEDCA
:2053E0001E6A5FED1E7A5FED1E6AC7EE098A624B86ED008AE8EE867A67EEA67AC3ED007A06
:20540000D4B1012C00F08C805C4BB0EE480A0120D3ED000AFBF72EFD594B83ED000A15E02C
:20542000584A0023032D13707FF4EBAE564AC2E90033564A1360E4E65549514AD1ED006A2C
:2054400087EEA67A83ED007A82ED007ADFED518AF0EE4A0A9FED506A68EE285A9FED4F7A98
:20546000DFED4F6AA8EE067ADFED4E7A85EE896A4D4A4E4B9FED4E0A82ED007AE6EE267A26
:20548000C3ED007A09F028FDDFED4A7A87EE800A09F030FC484B9FED497AD3ED007A484A62
:2054A00067EEA88A474B37EE677A9FED476AF7EE006AC8EE877A36EEC00ABDEC0A8B82EDEF
:2054C000000AC7FE867AC7FEE67AC3ED007ABDE8708FB0EE4A0A2AE6002E7FF415AE01297A
:2054E0000CDDB7EE00CA3046C9F8006010E6DFED377A27EE277A89ED007A60E7B7EE00CAEE
:2055000006E64FF0000ADFED32AACEF800A0CBE5F5EE407AF1EE10FA14BF012000205BE5BE
:20552000B8F1000F88D0012D1AD015DC55B9134BB6EE000A0120D3ED000AFBF79BFC104B69
:2055400083ED000AB3EE027A224BF0EE007AE8EE877AC3ED007A79E7023D012DE7D9F1E789
:20556000064B28469FED1C0AD3ED000AFBF782FC034B83ED000AE5E7C8550124F44C012445
:20558000CC5501245C100024085601240C4D01244C1000248FC2F53D34EF023BBAED0C36E8
:2055A0006F12033AA97BAE35F8560124F45601240000C843AAAA2ABC0C570124295C8F3F24
:2055C0002C570124F056012400000000CDCC4C3E00000042441000242549923E2DE97841CE
:2055E000092004F075FA002840F0F5804FF06053854C864993F8B00022780870002A00F059
:20560000F380834A1168526819655A6581494FF06053814A0D6849689D65D96511787F489D
:2056200007EE901A00210078F8EE677A7C4E7D4DC3ED187A07EE900A11707B49F8EE677AFA
:2056400032780968C3ED197A01FB02F277497848C3F8B4202A68C3F8C020D1ED007A02681E
:20566000F5EEC07AC3F8C820F1EE10FA40F3C980704BD3ED006A86EEA77A6F4D4FF06050E0
:205680000023294680ED317A9A00013302F16052142B126841F8042BF6D1836E6749684AB2
:2056A0000B60C36F1360674BD0F890601E60D0F86CC0654EC1F804C0D0F880C0C2F804C048
:2056C000D0F894C0C3F804C0D0F870C0C1F808C0D0F884C0C2F808C0D0F898C0C3F808C085
:2056E000D0F874C0C1F80CC0D0F888C0C2F80CC0D0F89CC0C3F80CC0D0F878C0C1F810C05F
:20570000D0F88C101161D0F8A0201A61D0F8BC103160D0F8CC301A0702D54C4B01221A708B
:205720004FF060534A48D3F8CC20C2F380020270D3F8CC20D3F8CC30C2F340024548DB07A1
:20574000027002D5444B02221A60DFF83C81D8F80030994205D0FEF7DDF8404A002133687F
:2057600011603F493F4AC8F800300B6800211170002B42D0AE6BE96BD5ED117A3A4BFDEE3B
:20578000E77A3A4859604FF060511E6017EE902A374D02F07F03D211C3F154032A60302B75
:2057A000A8BF302323EAE373036091F8B130DBB22370FBB9D1F8A4404FF060522D482E4B9F
:2057C000002104600920D2F8A8401C60D2F8AC205A6004F097F90A2004F07AF900210A203D
:2057E000BDE8784104F08EB9244A1168526819655A650BE74FF07E54DEE7214B19680E4629
:20580000BAE79FED207A38E7B856012459560124305601243856012460560124D129042440
:20582000A9560124B4290424C0550124F44C012430570124D4290424B01100245055012420
:2058400064550124785501248C55012439DC0124BD550124BC5501240C4D01241011002408
:2058600064560124481000241457012424570124285701243010002438100024405601246E
:2058800098550124000000009055012480B588B000AF3B1D00221A605A609A60DA6001F0FD
:2058A000A7F801233B7100237B714FF04043BB6019233B730323FB730023FB740023BB742B
:2058C00000237B740123BB7300237B7301233B743B1D184601F0C4F801237B714FF060531B
:2058E000BB600F233B7301237B743B1D184601F0B7F802237B714FF01053BB6012233B7393
:205900000123BB740123FB7400237B743B1D184601F0A6F803237B714FF01053BB600B234D
:205920003B730023BB740023FB7401237B743B1D184601F095F8042001F072F8334B5B69CD
:2059400003F40033002B1BD1BFF34F8F00BFBFF36F8F00BF2D4B0022C3F85022BFF34F8FF1
:2059600000BFBFF36F8F00BF284B5B69274A43F400335361BFF34F8F00BFBFF36F8F00E054
:2059800000BF224B5B6903F48033002B38D11F4B0022C3F88420BFF34F8F00BF1B4BD3F8CE
:2059A0008030FB61FB695B0BC3F30E03BB61FB69DB08C3F309037B61BB695A0143F6E0733E
:2059C00013407A69920711491343C1F860327B695A1E7A61002BEFD1BB695A1EBA61002BF9
:2059E000E5D1BFF34F8F00BF084B5B69074A43F480335361BFF34F8F00BFBFF36F8F00E0BD
:205A000000BF00BF2037BD4680BD00BF00ED00E080B588B000AF00F07FFB4FF6FF73FB614C
:205A200000BF914B1B6803F40043002B04D0FB695A1EFA61002BF4DCFB69002B01DA00F083
:205A400097FB00F003FE00F04FF900F0FDF9864BD3F8E030844A43F00073C2F8E030824BEE
:205A6000D3F8E03003F000733B613B69002004F02FF80021002004F045F84FF6FF73FB61E5
:205A800000BF794B1B6803F40043002B04D1FB695A1EFA61002BF4DCFB69002B01DA00F03A
:205AA00067FB00F05BFA00F0D1FA00F0FFF900F07DFA41F2883000F05BFEFFF7E7FE6B4972
:205AC0006B48FAF75BFEFEF78FFF6A4B6A4A1A606A4B6B4A1A606B4B6B4A1A606B4B4FF0A5
:205AE00000021A606A4B4FF000021A60694B4FF000021A60684B4FF000021A60674B4FF0EC
:205B000000021A60664B4FF000021A60654B4FF000021A60644B4FF000021A60634B4FF0DB
:205B20007E521A600023BB610EE0614ABB699B001344604A1A60604ABB699B0013445D4AA2
:205B40001A60BB690133BB61BB69012BEDDD00237B6109E0594A7B699B0013444FF07E52CD
:205B60001A607B6901337B617B69132BF2DD0A2003F0AEFF00210A2003F0C4FF504B1B68DD
:205B8000BB604F4B5B68FB604E4B1B683B604D4B5B687B604C4B1B78002B2BD04B4B1B68DC
:205BA000002B0DD14A4B1B680133494A1360484B1B68322B02D9474B00221A70FFF7B8F957
:205BC000424B1B68591C444B83FB01231A11CB17D21A13469B001344DB00CA1A3B4B1A600C
:205BE0003E4B1B881846FEF7A9FFFFF7F7FC364B00221A703A4B1B68002B0AD13A4607F1E2
:205C0000080311461846FEF745F9364B01221A70B4E7334B1B68012B02D1FEF785F9ADE7C1
:205C20002F4B1B68022B02D1FEF772FAA6E72C4B1B68052B02D1FEF7B9F89FE7284B1B685A
:205C4000062B9BD1274B1B78002B09D03A4607F1080311461846FEF71DF9224B00221A7042
:205C6000FEF768FA8AE700BF00440258541400242014002420100024CDCC4C3F241000244B
:205C8000CDCCCC3D28100024C3F5283E94550124985501249C550124A0550124A45501247A
:205CA000A8550124AC550124B05501242C10002430560124ACC5273738560124B011002400
:205CC000DC550124E45501246414002468140024545601245D10002467666666124D012457
:205CE000044D0124712A042480B59EB000AF07F12C034C220021184608F030FF07F10C03F7
:205D000020220021184608F029FF022003F00EFF0023BB60494BDB6A484A23F00103D3628B
:205D2000464BDB6A03F00103BB60454B9B69444A43F440439361424B9B6903F44043BB6085
:205D4000BB6800BF3E4B9B6903F40053B3F5005FF8D13C4BD3F8F4303A4A43F00203C2F8CE
:205D6000F430384BD3F8F43003F002037B607B6800233B60324B9B69314A43F4404393616F
:205D80002F4B9B6903F440433B602C4BDB6A2B4A43F00103D362294BDB6A03F001033B6088
:205DA0003B6800BF264B9B6903F40053B3F5005FF8D10223FB620123BB634023FB63022348
:205DC0003B6500237B650423BB653C23FB6502233B6605237B660223BB660C23FB66002352
:205DE0003B6700237B6707F12C03184603F0F8FE0346002B01D000F0BBF93F23FB600323C2
:205E00003B6100237B610823BB614023FB6140233B624FF480637B624023BB6207F10C0357
:205E20000421184604F036FB0346002B01D000F09FF900BF7837BD4680BD00BF0004005824
:205E4000004802580044025880B5B2B000AF3B46C8220021184608F081FE134A4FF00003BC
:205E6000C7E900232023BB608123FB6002233B6102237B610223BB614023FB6100233B6270
:205E800000237B620023BB650123FB653B46184604F076FE0346002B01D000F069F900BF9E
:205EA000C837BD4680BD00BF0001008080B500AF264B274A1A60254B02225A60234B002245
:205EC0009A60224B00225A61204B0022DA611F4B0022DA601D4B0022DA621C4B00221A6324
:205EE0001A4B00225A63022303220021174807F085FB0346002B01D000F03AF9154B164AF5
:205F00001A60144B03225A60124B01229A60114B00225A610F4B0022DA610E4B0022DA60AA
:205F20000C4B0022DA620B4B00221A63094B00225A63022303220021064807F05FFB034631
:205F4000002B01D000F014F900BF80BD0012002404580140981200242458014080B582B087
:205F600000AF114BD3F8D8300F4A43F00103C2F8D8300D4BD3F8D83003F001037B607B6811
:205F8000002200210C2000F0FEFC0C2000F015FD002200210D2000F0F6FC0D2000F00DFD01
:205FA00000BF0837BD4680BD0044025880B588B000AF3B1D00221A605A609A60DA601A618C
:205FC0005A619A611F4B204A1A601E4B00225A601C4B01229A601B4B0822DA60194B102294
:205FE0001A61184B40225A61164B4FF4C0729A61144B0022DA61134B4FF400621A62114B3E
:2060000000225A620F4B4FF400529A6202237B600823BB600823FB6008233B6106237B611F
:206020000623BB610323FB613B1D1946054808F0F9FB0346002B01D000F09AF800BF2037CC
:20604000BD4680BD201400244041005280B487B000AF304BD3F8E0302E4A43F01003C2F8ED
:20606000E0302C4BD3F8E03003F010037B617B69284BD3F8E030274A43F02003C2F8E03019
:20608000244BD3F8E03003F020033B613B69214BD3F8E0301F4A43F00403C2F8E0301D4B44
:2060A000D3F8E03003F00403FB60FB68194BD3F8E030184A43F00103C2F8E030154BD3F880
:2060C000E03003F00103BB60BB68124BD3F8E030104A43F04003C2F8E0300E4BD3F8E03075
:2060E00003F040037B607B680A4BD3F8E030094A43F00803C2F8E030064BD3F8E03003F002
:2061000008033B603B6800BF1C37BD465DF8047B704700BF0044025880B584B000AF3B46A0
:2061200000221A605A609A60DA6000F061FC01233B7000237B7000237B601F233B72872314
:206140007B720023BB720023FB7201233B7301237B730023BB730023FB733B46184600F0DD
:206160007FFC042000F05CFC00BF1037BD4680BD80B400AF72B600BF00BFFDE780B483B01E
:2061800000AF0A4BD3F8F430084A43F00203C2F8F430064BD3F8F43003F002037B607B68AE
:2061A00000BF0C37BD465DF8047B70470044025880B5BAB000AF07F1D40300221A605A603E
:2061C0009A60DA601A615B4B1B68002B40F0AE80584B01221A6007F10803C82200211846B2
:2061E00008F0BCFC4FF080724FF00003C7E9022300233B6507F10803184604F0C1FC034689
:20620000002B01D0FFF7B4FF4B4BD3F8D4304A4A43F48053C2F8D430474BD3F8D43003F4C0
:2062200080537B607B684FF63F03C7F8D4300223C7F8D8300023C7F8DC300323C7F8E030B4
:206240000C23C7F8E43007F1D40319463B4803F08FFA0C23C7F8D4300223C7F8D83000230E
:20626000C7F8DC300323C7F8E0300C23C7F8E43007F1D4031946324803F07AFA8023C7F8EB
:20628000D4300223C7F8D8300023C7F8DC300323C7F8E0300C23C7F8E43007F1D4031946FB
:2062A000284803F065FA48F23713C7F8D4300223C7F8D8300023C7F8DC300323C7F8E03006
:2062C0000C23C7F8E43007F1D40319461E4803F04FFA4FF68373C7F8D4300223C7F8D83002
:2062E0000023C7F8DC300323C7F8E0300C23C7F8E43007F1D4031946144803F039FA4CF2CB
:206300000373C7F8D4300223C7F8D8300023C7F8DC300323C7F8E0300C23C7F8E43007F17B
:20632000D40319460A4803F023FA00E000BFE837BD4680BD8C2A04240044025800140258DD
:2063400000080258000002580018025800100258000C025880B582B000AF7860FFF728FF34
:2063600000BF0837BD4680BD80B58AB000AF78607B681B686D4A934267D16D4B1B68002B59
:2063800016D16C4BD3F8F0306A4A43F48003C2F8F030684BD3F8F03003F480033B613B69D4
:2063A00000220021572000F0EEFA572000F005FB5F4B1B6801335E4A136070237B610223D4
:2063C000BB610023FB6100233B6206237B6207F114031946584803F0CBF9584B584A1A60D8
:2063E000564B57225A60554B40229A60534B0022DA60524B4FF480621A61504B4FF48052E6
:206400005A614E4B4FF480429A614C4B4FF48072DA614A4B00221A62484B00225A624748EE
:2064200000F05EFB0346002B01D0FFF7A1FE7B68424AC3F88420414A7B6893637B683F4A9B
:20644000C3F880203D4A7B6893637B681B683D4A934267D1364B1B68002B16D1354BD3F826
:20646000F030344A43F48003C2F8F030314BD3F8F03003F48003FB60FB6800220021572091
:2064800000F081FA572000F098FA294B1B680133274A136040237B610223BB610023FB618A
:2064A00000233B6206237B6207F114031946264803F05EF9254B264A1A60244B58225A60F3
:2064C000224B00229A60214B0022DA601F4B4FF480621A611D4B4FF480525A611B4B4FF480
:2064E00080429A61194B4FF48072DA61174B00221A62164B00225A62144800F0F1FA03464C
:20650000002B01D0FFF734FE7B68104AC3F884200E4A7B6893637B680C4AC3F880200B4AA1
:206520007B68936300BF2837BD4680BD04580140902A042400440258001002583013002436
:20654000280002402458014000140258A81300244000024080B400AF00BFFDE780B400AFDC
:2065600000BFFDE780B400AF00BFFDE780B400AF00BFFDE780B400AF00BFFDE780B400AF03
:2065800000BFBD465DF8047B704780B400AF00BFBD465DF8047B704780B400AF00BFBD46D9
:2065A0005DF8047B704780B500AF00F0C1F800BF80BD000080B500AF024801F0BBFD00BF31
:2065C00080BD00BF3013002480B500AF024801F0B1FD00BF80BD00BFA813002480B500AF0D
:2065E000034807F0C1FC034807F0BEFC00BF80BD0012002498120024DFF834D0FAF728F8B4
:206600000C480D490D4A002302E0D458C4500433C4188C42F9D30A4A0A4C002301E0136066
:206620000432A242FBD308F0A7FAFFF7F1F97047000008240010002494110024D80A01082E
:2066400094110024D02B0424FEE7000080B582B000AF032000F08CF904F0D2F80246154B55
:206660009B691B0A03F00F031349CB5C03F01F0322FA03F37B600F4B9B6903F00F030E4AAC
:20668000D35C03F01F037A6822FA03F30B4A13600B4A7B6813600F2000F014F80346002BB0
:2066A00001D0012302E0FFF769FD002318460837BD4680BD0044025874FD00080410002458
:2066C0000010002480B582B000AF7860154B1B78002B01D1012321E0134B1A68114B1B78B4
:2066E00019464FF47A73B3FBF1F3B2FBF3F3184600F071F90346002B01D001230EE07B68F4
:206700000F2B0AD8002279684FF0FF3000F03BF9064A7B681360002300E00123184608375E
:20672000BD4680BD40110024001000243C11002480B400AF064B1B781A46064B1B681344AD
:20674000044A136000BFBD465DF8047B704700BF40110024942A042480B400AF034B1B685D
:206760001846BD465DF8047B704700BF942A042480B584B000AF7860FFF7EEFFB8607B68BA
:20678000FB60FB68B3F1FF3F05D00A4B1B781A46FB681344FB6000BFFFF7DEFF0246BB682A
:2067A000D31AFA689A42F7D800BF00BF1037BD4680BD00BF4011002480B400AF034B1B68F2
:2067C0001B0C1846BD465DF8047B70470010005C80B485B000AF78607B6803F00703FB600F
:2067E0000B4BDB68BB60BA684FF6FF031340BB60FB681A02BB681A43064B1343BB60044AFF
:20680000BB68D36000BF1437BD465DF8047B704700ED00E00000FA0580B400AF044BDB6849
:206820001B0A03F007031846BD465DF8047B704700ED00E080B483B000AF0346FB80B7F9F3
:206840000630002B0BDBFB8803F01F020749B7F906305B09012000FA02F241F8232000BF76
:206860000C37BD465DF8047B704700BF00E100E080B483B000AF03463960FB80B7F906306E
:20688000002B0ADB3B68DAB20C49B7F906301201D2B20B4483F800230AE03B68DAB2084990
:2068A000FB8803F00F03043B1201D2B20B441A7600BF0C37BD465DF8047B704700E100E04A
:2068C00000ED00E080B489B000AFF860B9607A60FB6803F00703FB61FB69C3F10703042B77
:2068E00028BF0423BB61FB690433062B02D9FB69033B00E000237B614FF0FF32BB6902FAB6
:2069000003F3DA43BB681A407B699A404FF0FF317B6901FA03F3D9437B680B4013431846E7
